{
  "_format": "hh-sol-artifact-1",
  "contractName": "MYNTIST",
  "sourceName": "contracts/Myntist.sol",
  "abi": [
    {
      "inputs": [],
      "stateMutability": "nonpayable",
      "type": "constructor"
    },
    {
      "anonymous": false,
      "inputs": [
        {
          "indexed": true,
          "internalType": "address",
          "name": "owner",
          "type": "address"
        },
        {
          "indexed": true,
          "internalType": "address",
          "name": "spender",
          "type": "address"
        },
        {
          "indexed": false,
          "internalType": "uint256",
          "name": "value",
          "type": "uint256"
        }
      ],
      "name": "Approval",
      "type": "event"
    },
    {
      "anonymous": false,
      "inputs": [
        {
          "indexed": false,
          "internalType": "uint256",
          "name": "id",
          "type": "uint256"
        },
        {
          "indexed": false,
          "internalType": "uint256",
          "name": "stakeShares",
          "type": "uint256"
        }
      ],
      "name": "CreateStake",
      "type": "event"
    },
    {
      "anonymous": false,
      "inputs": [
        {
          "indexed": true,
          "internalType": "address",
          "name": "from",
          "type": "address"
        },
        {
          "indexed": true,
          "internalType": "address",
          "name": "to",
          "type": "address"
        },
        {
          "indexed": false,
          "internalType": "uint256",
          "name": "value",
          "type": "uint256"
        }
      ],
      "name": "Transfer",
      "type": "event"
    },
    {
      "inputs": [
        {
          "internalType": "uint256",
          "name": "",
          "type": "uint256"
        },
        {
          "internalType": "address",
          "name": "",
          "type": "address"
        }
      ],
      "name": "AARecords",
      "outputs": [
        {
          "internalType": "uint256",
          "name": "amount",
          "type": "uint256"
        },
        {
          "internalType": "uint256",
          "name": "time",
          "type": "uint256"
        },
        {
          "internalType": "bool",
          "name": "claimed",
          "type": "bool"
        },
        {
          "internalType": "address",
          "name": "user",
          "type": "address"
        },
        {
          "internalType": "address",
          "name": "refererAddress",
          "type": "address"
        }
      ],
      "stateMutability": "view",
      "type": "function"
    },
    {
      "inputs": [
        {
          "internalType": "address",
          "name": "owner",
          "type": "address"
        },
        {
          "internalType": "address",
          "name": "spender",
          "type": "address"
        }
      ],
      "name": "allowance",
      "outputs": [
        {
          "internalType": "uint256",
          "name": "",
          "type": "uint256"
        }
      ],
      "stateMutability": "view",
      "type": "function"
    },
    {
      "inputs": [
        {
          "internalType": "address",
          "name": "spender",
          "type": "address"
        },
        {
          "internalType": "uint256",
          "name": "amount",
          "type": "uint256"
        }
      ],
      "name": "approve",
      "outputs": [
        {
          "internalType": "bool",
          "name": "",
          "type": "bool"
        }
      ],
      "stateMutability": "nonpayable",
      "type": "function"
    },
    {
      "inputs": [
        {
          "internalType": "address",
          "name": "account",
          "type": "address"
        }
      ],
      "name": "balanceOf",
      "outputs": [
        {
          "internalType": "uint256",
          "name": "",
          "type": "uint256"
        }
      ],
      "stateMutability": "view",
      "type": "function"
    },
    {
      "inputs": [
        {
          "internalType": "string",
          "name": "",
          "type": "string"
        }
      ],
      "name": "btcAddressClaims",
      "outputs": [
        {
          "internalType": "bool",
          "name": "",
          "type": "bool"
        }
      ],
      "stateMutability": "view",
      "type": "function"
    },
    {
      "inputs": [],
      "name": "claimAATokens",
      "outputs": [],
      "stateMutability": "nonpayable",
      "type": "function"
    },
    {
      "inputs": [
        {
          "internalType": "uint256",
          "name": "id",
          "type": "uint256"
        }
      ],
      "name": "claimStakeReward",
      "outputs": [],
      "stateMutability": "nonpayable",
      "type": "function"
    },
    {
      "inputs": [
        {
          "internalType": "uint256",
          "name": "autoStakeDays",
          "type": "uint256"
        },
        {
          "internalType": "string",
          "name": "btcAddress",
          "type": "string"
        },
        {
          "internalType": "uint256",
          "name": "balance",
          "type": "uint256"
        },
        {
          "internalType": "address",
          "name": "refererAddress",
          "type": "address"
        },
        {
          "internalType": "bytes32[]",
          "name": "proof",
          "type": "bytes32[]"
        },
        {
          "internalType": "bytes32",
          "name": "messageHash",
          "type": "bytes32"
        },
        {
          "internalType": "bytes32",
          "name": "pubKeyX",
          "type": "bytes32"
        },
        {
          "internalType": "bytes32",
          "name": "pubKeyY",
          "type": "bytes32"
        },
        {
          "internalType": "uint8",
          "name": "v",
          "type": "uint8"
        },
        {
          "internalType": "bytes32",
          "name": "r",
          "type": "bytes32"
        },
        {
          "internalType": "bytes32",
          "name": "s",
          "type": "bytes32"
        }
      ],
      "name": "createFreeStake",
      "outputs": [],
      "stateMutability": "nonpayable",
      "type": "function"
    },
    {
      "inputs": [
        {
          "internalType": "uint256",
          "name": "_stake",
          "type": "uint256"
        },
        {
          "internalType": "uint256",
          "name": "day",
          "type": "uint256"
        },
        {
          "internalType": "string",
          "name": "stakeName",
          "type": "string"
        }
      ],
      "name": "createStake",
      "outputs": [],
      "stateMutability": "nonpayable",
      "type": "function"
    },
    {
      "inputs": [
        {
          "internalType": "uint256",
          "name": "",
          "type": "uint256"
        }
      ],
      "name": "dailyDataUpdation",
      "outputs": [
        {
          "internalType": "uint256",
          "name": "dayPayout",
          "type": "uint256"
        },
        {
          "internalType": "uint256",
          "name": "stakeShareTotal",
          "type": "uint256"
        },
        {
          "internalType": "uint256",
          "name": "unclaimed",
          "type": "uint256"
        },
        {
          "internalType": "uint256",
          "name": "mintedTokens",
          "type": "uint256"
        },
        {
          "internalType": "uint256",
          "name": "stakedToken",
          "type": "uint256"
        }
      ],
      "stateMutability": "view",
      "type": "function"
    },
    {
      "inputs": [],
      "name": "decimals",
      "outputs": [
        {
          "internalType": "uint8",
          "name": "",
          "type": "uint8"
        }
      ],
      "stateMutability": "view",
      "type": "function"
    },
    {
      "inputs": [
        {
          "internalType": "address",
          "name": "spender",
          "type": "address"
        },
        {
          "internalType": "uint256",
          "name": "subtractedValue",
          "type": "uint256"
        }
      ],
      "name": "decreaseAllowance",
      "outputs": [
        {
          "internalType": "bool",
          "name": "",
          "type": "bool"
        }
      ],
      "stateMutability": "nonpayable",
      "type": "function"
    },
    {
      "inputs": [
        {
          "internalType": "address",
          "name": "refererAddress",
          "type": "address"
        }
      ],
      "name": "enterAALobby",
      "outputs": [],
      "stateMutability": "payable",
      "type": "function"
    },
    {
      "inputs": [
        {
          "internalType": "uint256",
          "name": "totalDays",
          "type": "uint256"
        },
        {
          "internalType": "uint256",
          "name": "id",
          "type": "uint256"
        }
      ],
      "name": "extendStakeLength",
      "outputs": [],
      "stateMutability": "nonpayable",
      "type": "function"
    },
    {
      "inputs": [
        {
          "internalType": "address",
          "name": "",
          "type": "address"
        },
        {
          "internalType": "uint256",
          "name": "",
          "type": "uint256"
        }
      ],
      "name": "freeStakeClaimRecords",
      "outputs": [
        {
          "internalType": "string",
          "name": "btcAddress",
          "type": "string"
        },
        {
          "internalType": "uint256",
          "name": "balanceAtMoment",
          "type": "uint256"
        },
        {
          "internalType": "uint256",
          "name": "dayFreeStake",
          "type": "uint256"
        },
        {
          "internalType": "uint256",
          "name": "claimedAmount",
          "type": "uint256"
        },
        {
          "internalType": "uint256",
          "name": "rawBtc",
          "type": "uint256"
        }
      ],
      "stateMutability": "view",
      "type": "function"
    },
    {
      "inputs": [
        {
          "internalType": "uint256",
          "name": "day",
          "type": "uint256"
        }
      ],
      "name": "getAvailableMynt",
      "outputs": [
        {
          "internalType": "uint256",
          "name": "daySupply",
          "type": "uint256"
        }
      ],
      "stateMutability": "view",
      "type": "function"
    },
    {
      "inputs": [
        {
          "internalType": "uint256",
          "name": "day",
          "type": "uint256"
        }
      ],
      "name": "getDailyData",
      "outputs": [
        {
          "components": [
            {
              "internalType": "uint256",
              "name": "dayPayout",
              "type": "uint256"
            },
            {
              "internalType": "uint256",
              "name": "stakeShareTotal",
              "type": "uint256"
            },
            {
              "internalType": "uint256",
              "name": "unclaimed",
              "type": "uint256"
            },
            {
              "internalType": "uint256",
              "name": "mintedTokens",
              "type": "uint256"
            },
            {
              "internalType": "uint256",
              "name": "stakedToken",
              "type": "uint256"
            }
          ],
          "internalType": "struct MYNTIST.dailyData",
          "name": "",
          "type": "tuple"
        }
      ],
      "stateMutability": "view",
      "type": "function"
    },
    {
      "inputs": [
        {
          "internalType": "uint256",
          "name": "day",
          "type": "uint256"
        }
      ],
      "name": "getDailyShare",
      "outputs": [
        {
          "internalType": "uint256",
          "name": "dailyRewardOfDay",
          "type": "uint256"
        }
      ],
      "stateMutability": "view",
      "type": "function"
    },
    {
      "inputs": [],
      "name": "getFreeStakeClaimRecord",
      "outputs": [
        {
          "components": [
            {
              "internalType": "string",
              "name": "btcAddress",
              "type": "string"
            },
            {
              "internalType": "uint256",
              "name": "balanceAtMoment",
              "type": "uint256"
            },
            {
              "internalType": "uint256",
              "name": "dayFreeStake",
              "type": "uint256"
            },
            {
              "internalType": "uint256",
              "name": "claimedAmount",
              "type": "uint256"
            },
            {
              "internalType": "uint256",
              "name": "rawBtc",
              "type": "uint256"
            }
          ],
          "internalType": "struct MYNTIST.freeStakeClaimInfo[]",
          "name": "claimRecords",
          "type": "tuple[]"
        }
      ],
      "stateMutability": "view",
      "type": "function"
    },
    {
      "inputs": [
        {
          "internalType": "address",
          "name": "refererAddress",
          "type": "address"
        }
      ],
      "name": "getReferalRecords",
      "outputs": [
        {
          "components": [
            {
              "internalType": "address",
              "name": "referdAddress",
              "type": "address"
            },
            {
              "internalType": "uint256",
              "name": "day",
              "type": "uint256"
            },
            {
              "internalType": "uint256",
              "name": "awardedMynt",
              "type": "uint256"
            }
          ],
          "internalType": "struct MYNTIST.referalsRecord[]",
          "name": "referal",
          "type": "tuple[]"
        }
      ],
      "stateMutability": "view",
      "type": "function"
    },
    {
      "inputs": [],
      "name": "getStakeRecords",
      "outputs": [
        {
          "components": [
            {
              "internalType": "uint256",
              "name": "stakeShare",
              "type": "uint256"
            },
            {
              "internalType": "uint256",
              "name": "numOfDays",
              "type": "uint256"
            },
            {
              "internalType": "uint256",
              "name": "currentTime",
              "type": "uint256"
            },
            {
              "internalType": "bool",
              "name": "claimed",
              "type": "bool"
            },
            {
              "internalType": "uint256",
              "name": "id",
              "type": "uint256"
            },
            {
              "internalType": "uint256",
              "name": "startDay",
              "type": "uint256"
            },
            {
              "internalType": "uint256",
              "name": "endDay",
              "type": "uint256"
            },
            {
              "internalType": "uint256",
              "name": "endDayTimeStamp",
              "type": "uint256"
            },
            {
              "internalType": "bool",
              "name": "isFreeStake",
              "type": "bool"
            },
            {
              "internalType": "string",
              "name": "stakeName",
              "type": "string"
            },
            {
              "internalType": "uint256",
              "name": "stakeAmount",
              "type": "uint256"
            },
            {
              "internalType": "uint256",
              "name": "sharePrice",
              "type": "uint256"
            }
          ],
          "internalType": "struct MYNTIST.stakeRecord[]",
          "name": "stakeHolder",
          "type": "tuple[]"
        }
      ],
      "stateMutability": "view",
      "type": "function"
    },
    {
      "inputs": [
        {
          "internalType": "address",
          "name": "user",
          "type": "address"
        },
        {
          "internalType": "uint256",
          "name": "stakeId",
          "type": "uint256"
        },
        {
          "internalType": "uint256",
          "name": "dayToFind",
          "type": "uint256"
        }
      ],
      "name": "getStakeSharePercent",
      "outputs": [
        {
          "internalType": "uint256",
          "name": "",
          "type": "uint256"
        }
      ],
      "stateMutability": "view",
      "type": "function"
    },
    {
      "inputs": [
        {
          "internalType": "uint256",
          "name": "day",
          "type": "uint256"
        }
      ],
      "name": "getTotalBNB",
      "outputs": [
        {
          "internalType": "uint256",
          "name": "",
          "type": "uint256"
        }
      ],
      "stateMutability": "view",
      "type": "function"
    },
    {
      "inputs": [
        {
          "internalType": "uint256",
          "name": "day",
          "type": "uint256"
        },
        {
          "internalType": "address",
          "name": "user",
          "type": "address"
        }
      ],
      "name": "getTransactionRecords",
      "outputs": [
        {
          "components": [
            {
              "internalType": "uint256",
              "name": "amount",
              "type": "uint256"
            },
            {
              "internalType": "uint256",
              "name": "time",
              "type": "uint256"
            },
            {
              "internalType": "bool",
              "name": "claimed",
              "type": "bool"
            },
            {
              "internalType": "address",
              "name": "user",
              "type": "address"
            },
            {
              "internalType": "address",
              "name": "refererAddress",
              "type": "address"
            }
          ],
          "internalType": "struct MYNTIST.RecordInfo",
          "name": "record",
          "type": "tuple"
        }
      ],
      "stateMutability": "view",
      "type": "function"
    },
    {
      "inputs": [
        {
          "internalType": "address",
          "name": "_address",
          "type": "address"
        }
      ],
      "name": "getTransferRecords",
      "outputs": [
        {
          "components": [
            {
              "internalType": "address",
              "name": "to",
              "type": "address"
            },
            {
              "internalType": "address",
              "name": "from",
              "type": "address"
            },
            {
              "internalType": "uint256",
              "name": "amount",
              "type": "uint256"
            }
          ],
          "internalType": "struct MYNTIST.transferInfo[]",
          "name": "transferRecord",
          "type": "tuple[]"
        }
      ],
      "stateMutability": "view",
      "type": "function"
    },
    {
      "inputs": [
        {
          "internalType": "address",
          "name": "spender",
          "type": "address"
        },
        {
          "internalType": "uint256",
          "name": "addedValue",
          "type": "uint256"
        }
      ],
      "name": "increaseAllowance",
      "outputs": [
        {
          "internalType": "bool",
          "name": "",
          "type": "bool"
        }
      ],
      "stateMutability": "nonpayable",
      "type": "function"
    },
    {
      "inputs": [
        {
          "internalType": "address",
          "name": "_address",
          "type": "address"
        }
      ],
      "name": "isStakeholder",
      "outputs": [
        {
          "internalType": "bool",
          "name": "",
          "type": "bool"
        },
        {
          "internalType": "uint256",
          "name": "",
          "type": "uint256"
        }
      ],
      "stateMutability": "view",
      "type": "function"
    },
    {
      "inputs": [],
      "name": "name",
      "outputs": [
        {
          "internalType": "string",
          "name": "",
          "type": "string"
        }
      ],
      "stateMutability": "view",
      "type": "function"
    },
    {
      "inputs": [
        {
          "internalType": "uint256",
          "name": "",
          "type": "uint256"
        },
        {
          "internalType": "uint256",
          "name": "",
          "type": "uint256"
        }
      ],
      "name": "perDayAARecords",
      "outputs": [
        {
          "internalType": "address",
          "name": "",
          "type": "address"
        }
      ],
      "stateMutability": "view",
      "type": "function"
    },
    {
      "inputs": [
        {
          "internalType": "uint256",
          "name": "",
          "type": "uint256"
        }
      ],
      "name": "perDayPenalties",
      "outputs": [
        {
          "internalType": "uint256",
          "name": "",
          "type": "uint256"
        }
      ],
      "stateMutability": "view",
      "type": "function"
    },
    {
      "inputs": [
        {
          "internalType": "uint256",
          "name": "",
          "type": "uint256"
        }
      ],
      "name": "perDayUnclaimedBTC",
      "outputs": [
        {
          "internalType": "uint256",
          "name": "",
          "type": "uint256"
        }
      ],
      "stateMutability": "view",
      "type": "function"
    },
    {
      "inputs": [
        {
          "internalType": "address",
          "name": "",
          "type": "address"
        },
        {
          "internalType": "uint256",
          "name": "",
          "type": "uint256"
        }
      ],
      "name": "referals",
      "outputs": [
        {
          "internalType": "address",
          "name": "referdAddress",
          "type": "address"
        },
        {
          "internalType": "uint256",
          "name": "day",
          "type": "uint256"
        },
        {
          "internalType": "uint256",
          "name": "awardedMynt",
          "type": "uint256"
        }
      ],
      "stateMutability": "view",
      "type": "function"
    },
    {
      "inputs": [],
      "name": "shareRate",
      "outputs": [
        {
          "internalType": "uint256",
          "name": "",
          "type": "uint256"
        }
      ],
      "stateMutability": "view",
      "type": "function"
    },
    {
      "inputs": [
        {
          "internalType": "address",
          "name": "",
          "type": "address"
        },
        {
          "internalType": "uint256",
          "name": "",
          "type": "uint256"
        }
      ],
      "name": "stakeHolders",
      "outputs": [
        {
          "internalType": "uint256",
          "name": "stakeShare",
          "type": "uint256"
        },
        {
          "internalType": "uint256",
          "name": "numOfDays",
          "type": "uint256"
        },
        {
          "internalType": "uint256",
          "name": "currentTime",
          "type": "uint256"
        },
        {
          "internalType": "bool",
          "name": "claimed",
          "type": "bool"
        },
        {
          "internalType": "uint256",
          "name": "id",
          "type": "uint256"
        },
        {
          "internalType": "uint256",
          "name": "startDay",
          "type": "uint256"
        },
        {
          "internalType": "uint256",
          "name": "endDay",
          "type": "uint256"
        },
        {
          "internalType": "uint256",
          "name": "endDayTimeStamp",
          "type": "uint256"
        },
        {
          "internalType": "bool",
          "name": "isFreeStake",
          "type": "bool"
        },
        {
          "internalType": "string",
          "name": "stakeName",
          "type": "string"
        },
        {
          "internalType": "uint256",
          "name": "stakeAmount",
          "type": "uint256"
        },
        {
          "internalType": "uint256",
          "name": "sharePrice",
          "type": "uint256"
        }
      ],
      "stateMutability": "view",
      "type": "function"
    },
    {
      "inputs": [
        {
          "internalType": "uint256",
          "name": "",
          "type": "uint256"
        }
      ],
      "name": "subtractedShares",
      "outputs": [
        {
          "internalType": "uint256",
          "name": "",
          "type": "uint256"
        }
      ],
      "stateMutability": "view",
      "type": "function"
    },
    {
      "inputs": [],
      "name": "symbol",
      "outputs": [
        {
          "internalType": "string",
          "name": "",
          "type": "string"
        }
      ],
      "stateMutability": "view",
      "type": "function"
    },
    {
      "inputs": [
        {
          "internalType": "uint256",
          "name": "",
          "type": "uint256"
        }
      ],
      "name": "totalBNBSubmitted",
      "outputs": [
        {
          "internalType": "uint256",
          "name": "",
          "type": "uint256"
        }
      ],
      "stateMutability": "view",
      "type": "function"
    },
    {
      "inputs": [],
      "name": "totalSupply",
      "outputs": [
        {
          "internalType": "uint256",
          "name": "",
          "type": "uint256"
        }
      ],
      "stateMutability": "view",
      "type": "function"
    },
    {
      "inputs": [
        {
          "internalType": "address",
          "name": "to",
          "type": "address"
        },
        {
          "internalType": "uint256",
          "name": "amount",
          "type": "uint256"
        }
      ],
      "name": "transfer",
      "outputs": [
        {
          "internalType": "bool",
          "name": "",
          "type": "bool"
        }
      ],
      "stateMutability": "nonpayable",
      "type": "function"
    },
    {
      "inputs": [
        {
          "internalType": "address",
          "name": "from",
          "type": "address"
        },
        {
          "internalType": "address",
          "name": "to",
          "type": "address"
        },
        {
          "internalType": "uint256",
          "name": "amount",
          "type": "uint256"
        }
      ],
      "name": "transferFrom",
      "outputs": [
        {
          "internalType": "bool",
          "name": "",
          "type": "bool"
        }
      ],
      "stateMutability": "nonpayable",
      "type": "function"
    },
    {
      "inputs": [
        {
          "internalType": "address",
          "name": "recipientAddress",
          "type": "address"
        },
        {
          "internalType": "uint256",
          "name": "_amount",
          "type": "uint256"
        }
      ],
      "name": "transferMynt",
      "outputs": [],
      "stateMutability": "nonpayable",
      "type": "function"
    },
    {
      "inputs": [
        {
          "internalType": "address",
          "name": "",
          "type": "address"
        },
        {
          "internalType": "uint256",
          "name": "",
          "type": "uint256"
        }
      ],
      "name": "transferRecords",
      "outputs": [
        {
          "internalType": "address",
          "name": "to",
          "type": "address"
        },
        {
          "internalType": "address",
          "name": "from",
          "type": "address"
        },
        {
          "internalType": "uint256",
          "name": "amount",
          "type": "uint256"
        }
      ],
      "stateMutability": "view",
      "type": "function"
    },
    {
      "inputs": [
        {
          "internalType": "uint256",
          "name": "id",
          "type": "uint256"
        },
        {
          "internalType": "address",
          "name": "transferTo",
          "type": "address"
        }
      ],
      "name": "transferStake",
      "outputs": [],
      "stateMutability": "nonpayable",
      "type": "function"
    },
    {
      "inputs": [],
      "name": "withdraw",
      "outputs": [],
      "stateMutability": "nonpayable",
      "type": "function"
    }
  ],
  "bytecode": "0x60806040526363046ce060055560006006819055600780546001600160a01b031916736b26678f4f392b0e400cc419fa3e5161759ca38017905560088190556606c00a3912c000600955600a819055600c553480156200005e57600080fd5b506040805180820182526007815266135653951254d560ca1b6020808301918252835180850190945260048452631356539560e21b908401528151919291620000aa9160039162000119565b508051620000c090600490602084019062000119565b5050601180546001600160a01b03191633179055506000600d55620000ea620186a06001620001bf565b600b55601080546001600160a01b03191673698d1355329fbb711b3cee811edced43c86c62341790556200022a565b8280546200012790620001ed565b90600052602060002090601f0160209004810192826200014b576000855562000196565b82601f106200016657805160ff191683800117855562000196565b8280016001018555821562000196579182015b828111156200019657825182559160200191906001019062000179565b50620001a4929150620001a8565b5090565b5b80821115620001a45760008155600101620001a9565b6000816000190483118215151615620001e857634e487b7160e01b600052601160045260246000fd5b500290565b600181811c908216806200020257607f821691505b602082108114156200022457634e487b7160e01b600052602260045260246000fd5b50919050565b616035806200023a6000396000f3fe6080604052600436106102e75760003560e01c80635872994911610184578063adb01af7116100d6578063e03556ac1161008a578063ef037b9011610064578063ef037b9014610b10578063fa8d1f4214610b47578063fb802a6514610b8257600080fd5b8063e03556ac14610ab0578063e17abe6114610ad0578063e506b25b14610af057600080fd5b8063d462873b116100bb578063d462873b146109e8578063d6a8e96d14610a08578063dd62ed3e14610a6a57600080fd5b8063adb01af71461098e578063bfe3e18f146109bb57600080fd5b806370a082311161013857806395d89b411161011257806395d89b4114610939578063a457c2d71461094e578063a9059cbb1461096e57600080fd5b806370a082311461083b5780638f9615e4146108715780639006fab41461089e57600080fd5b80635e241b1b116101695780635e241b1b1461078957806361cc834a146107a95780636688ab151461081b57600080fd5b8063587299491461073c57806359185b071461076957600080fd5b8063313ce5671161023d5780633ccfd60b116101f157806340be79f0116101cb57806340be79f0146106c3578063422abc42146106d657806354cbed601461071c57600080fd5b80633ccfd60b1461063c5780633cf3be6b146106515780633d7c01f21461067e57600080fd5b8063326be88d11610222578063326be88d146105b757806339509351146105e45780633987ad4a1461060457600080fd5b8063313ce56714610563578063316341e71461057f57600080fd5b806318160ddd1161029f5780632ae6e093116102795780632ae6e09314610401578063302bbab71461050557806330f4c8d91461053257600080fd5b806318160ddd146103a05780631d880b39146103bf57806323b872dd146103e157600080fd5b8063095ea7b3116102d0578063095ea7b31461032e578063112beab51461035e5780631630230b1461037e57600080fd5b8063031c3cbf146102ec57806306fdde0314610303575b600080fd5b3480156102f857600080fd5b50610301610b98565b005b34801561030f57600080fd5b50610318610ed2565b6040516103259190615cd1565b60405180910390f35b34801561033a57600080fd5b5061034e6103493660046157c4565b610f64565b6040519015158152602001610325565b34801561036a57600080fd5b506103016103793660046157c4565b610f7e565b34801561038a57600080fd5b50610393611061565b6040516103259190615a65565b3480156103ac57600080fd5b506002545b604051908152602001610325565b3480156103cb57600080fd5b506103d4611185565b6040516103259190615b7a565b3480156103ed57600080fd5b5061034e6103fc366004615788565b6112f7565b34801561040d57600080fd5b506104b261041c366004615891565b6040805160a0810182526000808252602082018190529181018290526060810182905260808101919091525060009182526012602090815260408084206001600160a01b039384168552825292839020835160a08101855281548152600182015492810192909252600281015460ff81161515948301949094526101009093048216606082015260039092015416608082015290565b6040516103259190600060a082019050825182526020830151602083015260408301511515604083015260608301516001600160a01b038082166060850152806080860151166080850152505092915050565b34801561051157600080fd5b506103b1610520366004615878565b601e6020526000908152604090205481565b34801561053e57600080fd5b5061055261054d3660046157c4565b61131b565b604051610325959493929190615ce4565b34801561056f57600080fd5b5060405160088152602001610325565b34801561058b57600080fd5b5061059f61059a36600461598d565b6113f6565b6040516001600160a01b039091168152602001610325565b3480156105c357600080fd5b506105d76105d236600461573a565b61142e565b6040516103259190615b18565b3480156105f057600080fd5b5061034e6105ff3660046157c4565b6114c6565b34801561061057600080fd5b5061062461061f3660046157c4565b611505565b6040516103259c9b9a99989796959493929190615daa565b34801561064857600080fd5b50610301611615565b34801561065d57600080fd5b506103b161066c366004615878565b60146020526000908152604090205481565b34801561068a57600080fd5b5061069e6106993660046157c4565b61165c565b604080516001600160a01b039094168452602084019290925290820152606001610325565b6103016106d136600461573a565b6116a8565b3480156106e257600080fd5b506106f66106f13660046157c4565b611a0a565b604080516001600160a01b03948516815293909216602084015290820152606001610325565b34801561072857600080fd5b506103b1610737366004615878565b611a57565b34801561074857600080fd5b506103b1610757366004615878565b60009081526014602052604090205490565b34801561077557600080fd5b506103016107843660046159af565b611ae4565b34801561079557600080fd5b506103b16107a4366004615878565b611f84565b3480156107b557600080fd5b506107f36107c4366004615878565b601d60205260009081526040902080546001820154600283015460038401546004909401549293919290919085565b604080519586526020860194909452928401919091526060830152608082015260a001610325565b34801561082757600080fd5b506103016108363660046158b4565b611fe8565b34801561084757600080fd5b506103b161085636600461573a565b6001600160a01b031660009081526020819052604090205490565b34801561087d57600080fd5b506103b161088c366004615878565b601c6020526000908152604090205481565b3480156108aa57600080fd5b506109026108b9366004615891565b601260209081526000928352604080842090915290825290208054600182015460028301546003909301549192909160ff8216916001600160a01b036101009091048116911685565b604080519586526020860194909452911515928401929092526001600160a01b03918216606084015216608082015260a001610325565b34801561094557600080fd5b506103186122fb565b34801561095a57600080fd5b5061034e6109693660046157c4565b61230a565b34801561097a57600080fd5b5061034e6109893660046157c4565b6123b4565b34801561099a57600080fd5b506109ae6109a936600461573a565b6123c2565b6040516103259190615c79565b3480156109c757600080fd5b506103b16109d6366004615878565b601b6020526000908152604090205481565b3480156109f457600080fd5b50610301610a0336600461598d565b612454565b348015610a1457600080fd5b50610a28610a23366004615878565b61291b565b6040516103259190600060a082019050825182526020830151602083015260408301516040830152606083015160608301526080830151608083015292915050565b348015610a7657600080fd5b506103b1610a85366004615755565b6001600160a01b03918216600090815260016020908152604080832093909416825291909152205490565b348015610abc57600080fd5b506103b1610acb3660046157ee565b612a04565b348015610adc57600080fd5b50610301610aeb366004615891565b612c57565b348015610afc57600080fd5b50610301610b0b366004615878565b613017565b348015610b1c57600080fd5b50610b30610b2b36600461573a565b61364b565b604080519215158352602083019190915201610325565b348015610b5357600080fd5b5061034e610b62366004615843565b8051602081830181018051601a8252928201919093012091525460ff1681565b348015610b8e57600080fd5b506103b1600b5481565b6000610ba26136b6565b905060008111610bf95760405162461bcd60e51b815260206004820152600760248201527f6e6f74206e6f770000000000000000000000000000000000000000000000000060448201526064015b60405180910390fd5b600d54811115610c22576000600d546001610c149190615e18565b9050610c2081836136d5565b505b6000610c2f600183615ea8565b600081815260146020526040812054919250610c4a83611a57565b90506000610ce984336040805160a0810182526000808252602082018190529181018290526060810182905260808101919091525060009182526012602090815260408084206001600160a01b039384168552825292839020835160a08101855281548152600182015492810192909252600281015460ff81161515948301949094526101009093048216606082015260039092015416608082015290565b60608101519091506001600160a01b031615801590610d0a57506040810151155b15610ecb578051600080610d1f83878761381f565b60808501519092506001600160a01b0381163314801590610d4857506001600160a01b03811615155b15610d9357826000610d5b826014615e6b565b9050610d68606482615e30565b905080600854610d789190615e18565b600855610d858382613855565b610d9083338361390b565b50505b610d9e3384836139a1565b9150610daa8284615e18565b925081600854610dba9190615e18565b600855610dc73384613855565b505050600085815260126020908152604080832033808552818452828520835160a08101855281548152600180830180548389019081526002850180546001600160a01b0361010080830482166060890190815260038a01805480851660808c019081529e8b01998a529b909f529a909c5295519096559051909155905194517fffffffffffffffffffffff0000000000000000000000000000000000000000009093169415157fffffffffffffffffffffff0000000000000000000000000000000000000000ff16949094179181169095021790915590517fffffffffffffffffffffffff00000000000000000000000000000000000000009091169116179055505b5050505050565b606060038054610ee190615eeb565b80601f0160208091040260200160405190810160405280929190818152602001828054610f0d90615eeb565b8015610f5a5780601f10610f2f57610100808354040283529160200191610f5a565b820191906000526020600020905b815481529060010190602001808311610f3d57829003601f168201915b5050505050905090565b600033610f72818585613a38565b60019150505b92915050565b6000610f886136b6565b9050610f95338484613b91565b604080516060810182526001600160a01b0385168152336020820152908101839052600d54821115610fe0576000600d546001610fd29190615e18565b9050610fde81846136d5565b505b33600090815260186020908152604080832080546001818101835591855293839020855160039095020180546001600160a01b039586167fffffffffffffffffffffffff0000000000000000000000000000000000000000918216178255938601519181018054929095169190931617909255910151600290910155505050565b336000908152601960209081526040808320805482518185028101850190935280835260609492939192909184015b8282101561117c57838290600052602060002090600502016040518060a00160405290816000820180546110c390615eeb565b80601f01602080910402602001604051908101604052809291908181526020018280546110ef90615eeb565b801561113c5780601f106111115761010080835404028352916020019161113c565b820191906000526020600020905b81548152906001019060200180831161111f57829003601f168201915b5050505050815260200160018201548152602001600282015481526020016003820154815260200160048201548152505081526020019060010190611090565b50505050905090565b336000908152601760209081526040808320805482518185028101850190935280835260609492939192909184015b8282101561117c5760008481526020908190206040805161018081018252600c860290920180548352600181015493830193909352600283015490820152600382015460ff9081161515606083015260048301546080830152600583015460a0830152600683015460c0830152600783015460e083015260088301541615156101008201526009820180549192916101208401919061125290615eeb565b80601f016020809104026020016040519081016040528092919081815260200182805461127e90615eeb565b80156112cb5780601f106112a0576101008083540402835291602001916112cb565b820191906000526020600020905b8154815290600101906020018083116112ae57829003601f168201915b50505050508152602001600a8201548152602001600b82015481525050815260200190600101906111b4565b600033611305858285613da8565b611310858585613b91565b506001949350505050565b6019602052816000526040600020818154811061133757600080fd5b90600052602060002090600502016000915091505080600001805461135b90615eeb565b80601f016020809104026020016040519081016040528092919081815260200182805461138790615eeb565b80156113d45780601f106113a9576101008083540402835291602001916113d4565b820191906000526020600020905b8154815290600101906020018083116113b757829003601f168201915b5050505050908060010154908060020154908060030154908060040154905085565b6015602052816000526040600020818154811061141257600080fd5b6000918252602090912001546001600160a01b03169150829050565b6001600160a01b0381166000908152601360209081526040808320805482518185028101850190935280835260609492939192909184015b828210156114bb576000848152602090819020604080516060810182526003860290920180546001600160a01b0316835260018082015484860152600290910154918301919091529083529092019101611466565b505050509050919050565b3360008181526001602090815260408083206001600160a01b0387168452909152812054909190610f729082908690611500908790615e18565b613a38565b6017602052816000526040600020818154811061152157600080fd5b60009182526020909120600c9091020180546001820154600283015460038401546004850154600586015460068701546007880154600889015460098a018054999c50979a50959860ff95861698949793969295919491909216929061158690615eeb565b80601f01602080910402602001604051908101604052809291908181526020018280546115b290615eeb565b80156115ff5780601f106115d4576101008083540402835291602001916115ff565b820191906000526020600020905b8154815290600101906020018083116115e257829003601f168201915b50505050509080600a01549080600b015490508c565b6011546001600160a01b0316331461162c57600080fd5b6040513390303180156108fc02916000818181858888f19350505050158015611659573d6000803e3d6000fd5b50565b6013602052816000526040600020818154811061167857600080fd5b60009182526020909120600390910201805460018201546002909201546001600160a01b03909116935090915083565b600034116116f85760405162461bcd60e51b815260206004820152600960248201527f302042616c616e636500000000000000000000000000000000000000000000006044820152606401610bf0565b60006117026136b6565b9050600d5481111561172d576000600d54600161171f9190615e18565b905061172b81836136d5565b505b6040805160a08101825234815242602080830191909152600082840181905233606084018190526001600160a01b03878116608086015286835260128452858320918352925292832060020154919291610100900416806117915760009150611796565b600191505b816118975760008481526012602090815260408083203380855290835281842087518155878401516001808301919091558884015160028301805460608c01517fffffffffffffffffffffff0000000000000000000000000000000000000000009091169215157fffffffffffffffffffffff0000000000000000000000000000000000000000ff16929092176101006001600160a01b039384160217905560808a0151600390930180547fffffffffffffffffffffffff00000000000000000000000000000000000000009081169490921693909317909255898652601585529285208054938401815585529290932001805490911690911790556119d7565b6000848152601260209081526040808320338452825291829020825160a0810184528154808252600183015493820193909352600282015460ff81161515948201949094526101009093046001600160a01b039081166060850152600390910154166080830152611909903490615e18565b81526000858152601260209081526040808320338452825291829020835181559083015160018201559082015160028201805460608501517fffffffffffffffffffffff0000000000000000000000000000000000000000009091169215157fffffffffffffffffffffff0000000000000000000000000000000000000000ff16929092176101006001600160a01b0393841602179055608090920151600390910180547fffffffffffffffffffffffff000000000000000000000000000000000000000016919092161790555b6000848152601460205260409020546119f1903490615e18565b6000948552601460205260409094209390935550505050565b60186020528160005260406000208181548110611a2657600080fd5b60009182526020909120600390910201805460018201546002909201546001600160a01b0391821694509116915083565b60008067016345785d8a000083611a7057809150611add565b6606c00a3912c0006000805b86811015611ab1576000818152601c6020526040902054611a9d9083615e18565b915080611aa981615f39565b915050611a7c565b50611abc8183615ea8565b9150611aca82612710615e6b565b9150611ad861015e83615e30565b935050505b5092915050565b3360009081526020819052604090205483811015611b445760405162461bcd60e51b815260206004820152601d60248201527f4e6f7420656e6f75676820616d6f756e7420666f72207374616b696e670000006044820152606401610bf0565b6000611b4f3361364b565b50905080611bb257600f80546001810182556000919091527f8d1108e10bcb7c27dddfc02ed9d693a074039d026cf4ea4240b40f7d581ac8020180547fffffffffffffffffffffffff000000000000000000000000000000000000000016331790555b611bbc3386613e52565b6006805460009182611bcd83615f39565b9190505590506000611bdd6136b6565b90506000611beb8783615e18565b90506000611bfb886105dc615e6b565b9050611c078142615e18565b90506000611c148a613fcf565b905080600854611c249190615e18565b6008556000611c338b8b614016565b905080600854611c439190615e18565b6008556000611c538c8385614051565b90506001811015611ca65760405162461bcd60e51b815260206004820152600d60248201527f536861726520746f6f206c6f77000000000000000000000000000000000000006044820152606401610bf0565b600d54861115611ccf576000600d546001611cc19190615e18565b9050611ccd81886136d5565b505b6000858152601e6020526040902054611ce9908290615e18565b601e60008781526020019081526020016000208190555060006040518061018001604052808381526020018d81526020014281526020016000151581526020018981526020018881526020018781526020018681526020016000151581526020018c81526020018e8152602001600b54815250905060176000336001600160a01b03166001600160a01b031681526020019081526020016000208190806001815401808255809150506001900390600052602060002090600c020160009091909190915060008201518160000155602082015181600101556040820151816002015560608201518160030160006101000a81548160ff0219169083151502179055506080820151816004015560a0820151816005015560c0820151816006015560e082015181600701556101008201518160080160006101000a81548160ff021916908315150217905550610120820151816009019080519060200190611e519291906154d1565b50610140820151600a82015561016090910151600b909101556000878152601d6020908152604091829020825160a08101845281548152600182015492810183905260028201549381019390935260038101546060840152600401546080830152611ebd908490615e18565b6020820152611ecb88611f84565b815260095460408201526060810151611ee5908f90615ea8565b60608201526080810151611efa908f90615e18565b608082019081526000898152601d60209081526040918290208451815581850151600182015582850151600282015560608501516003820155925160049093019290925580518b81529182018590527fda5e42c31debac95c5010f643d9a58bea066d952635049cf77012c5f7bed15fd910160405180910390a15050505050505050505050505050565b6000818152601b602052604081205481611f9d8461291b565b9050600081608001518260600151611fb59190615e18565b9050611fc381612710615e6b565b9350611fd36305fcbae385615e30565b9350611fdf8385615e18565b95945050505050565b60008a1161205e5760405162461bcd60e51b815260206004820152602f60248201527f596f75206e65656420746f2068617665206d6f7265207468616e20302042746360448201527f20696e20796f75722077616c6c657400000000000000000000000000000000006064820152608401610bf0565b6010546040517ff6980f4d0000000000000000000000000000000000000000000000000000000081526000916001600160a01b03169063f6980f4d906120b8908e908d908d908d908d908d908d908d908d90600401615d1b565b602060405180830381600087803b1580156120d257600080fd5b505af11580156120e6573d6000803e3d6000fd5b505050506040513d601f19601f8201168201806040525081019061210a9190615821565b9050806121595760405162461bcd60e51b815260206004820152600b60248201527f6e6f7420766572666965640000000000000000000000000000000000000000006044820152606401610bf0565b60006121636136b6565b600d549091508e908d908f908e90851115612197576000600d5460016121899190615e18565b905061219581876136d5565b505b6121a5338387868589614089565b826009546121b39190615ea8565b6009556000858152601c60205260409020546121d0908490615e18565b6000868152601c6020526040902055600a546121ed908490615e18565b600a55604051600190601a90612204908590615a49565b90815260405190819003602001902080549115157fffffffffffffffffffffffffffffffffffffffffffffffffffffffffffffff00909216919091179055600c805490600061225283615f39565b90915550506000858152601d6020908152604091829020825160a0810184528154815260018201549281019290925260038101546060830152600401546080820152600954918101919091526122a786611f84565b81526000958652601d60209081526040968790208251815590820151600182015595810151600287015560608101516003870155608001516004909501949094555050505050505050505050505050505050565b606060048054610ee190615eeb565b3360008181526001602090815260408083206001600160a01b0387168452909152812054909190838110156123a75760405162461bcd60e51b815260206004820152602560248201527f45524332303a2064656372656173656420616c6c6f77616e63652062656c6f7760448201527f207a65726f0000000000000000000000000000000000000000000000000000006064820152608401610bf0565b6113108286868403613a38565b600033610f72818585613b91565b6001600160a01b0381166000908152601860209081526040808320805482518185028101850190935280835260609492939192909184015b828210156114bb576000848152602090819020604080516060810182526003860290920180546001600160a01b039081168452600180830154909116848601526002909101549183019190915290835290920191016123fa565b600061245e6136b6565b9050600d54811115612489576000600d54600161247b9190615e18565b905061248781836136d5565b505b33600090815260176020908152604080832080548251818502810185019093528083529192909190849084015b828210156125f95760008481526020908190206040805161018081018252600c860290920180548352600181015493830193909352600283015490820152600382015460ff9081161515606083015260048301546080830152600583015460a0830152600683015460c0830152600783015460e083015260088301541615156101008201526009820180549192916101208401919061255490615eeb565b80601f016020809104026020016040519081016040528092919081815260200182805461258090615eeb565b80156125cd5780601f106125a2576101008083540402835291602001916125cd565b820191906000526020600020905b8154815290600101906020018083116125b057829003601f168201915b50505050508152602001600a8201548152602001600b82015481525050815260200190600101906124b6565b50505050905060005b8151811015610ecb578382828151811061261e5761261e615fa1565b60200260200101516080015114156129095781818151811061264257612642615fa1565b60200260200101516101000151156127e75761016d85106127e75781818151811061266f5761266f615fa1565b6020026020010151602001518583838151811061268e5761268e615fa1565b602002602001015160a001516126a49190615e18565b116126f15760405162461bcd60e51b815260206004820152601c60248201527f636f6e646974696f6e2073686f756c64206e6f74206265206d656574000000006044820152606401610bf0565b8482828151811061270457612704615fa1565b60200260200101516020015161271a9190615e18565b82828151811061272c5761272c615fa1565b602002602001015160200181815250508482828151811061274f5761274f615fa1565b602002602001015160a001516127659190615e18565b82828151811061277757612777615fa1565b602002602001015160c0018181525050600082828151811061279b5761279b615fa1565b602002602001015160c001516105dc6127b49190615e6b565b90506127c08142615e18565b9050808383815181106127d5576127d5615fa1565b602002602001015160e0018181525050505b8181815181106127f9576127f9615fa1565b602002602001015160176000336001600160a01b03166001600160a01b03168152602001908152602001600020828154811061283757612837615fa1565b60009182526020918290208351600c909202019081558282015160018201556040830151600282015560608301516003820180549115157fffffffffffffffffffffffffffffffffffffffffffffffffffffffffffffff009283161790556080840151600483015560a0840151600583015560c0840151600683015560e0840151600783015561010084015160088301805491151591909216179055610120830151805191926128ef926009850192909101906154d1565b50610140820151600a82015561016090910151600b909101555b8061291381615f39565b915050612602565b61294d6040518060a0016040528060008152602001600081526020016000815260200160008152602001600081525090565b81600d5410156129b057601d6000600d5481526020019081526020016000206040518060a0016040529081600082015481526020016001820154815260200160028201548152602001600382015481526020016004820154815250509050919050565b506000908152601d6020908152604091829020825160a0810184528154815260018201549281019290925260028101549282019290925260038201546060820152600490910154608082015290565b919050565b6001600160a01b038316600090815260176020908152604080832080548251818502810185019093528083528493849084015b82821015612b7a5760008481526020908190206040805161018081018252600c860290920180548352600181015493830193909352600283015490820152600382015460ff9081161515606083015260048301546080830152600583015460a0830152600683015460c0830152600783015460e0830152600883015416151561010082015260098201805491929161012084019190612ad590615eeb565b80601f0160208091040260200160405190810160405280929190818152602001828054612b0190615eeb565b8015612b4e5780601f10612b2357610100808354040283529160200191612b4e565b820191906000526020600020905b815481529060010190602001808311612b3157829003601f168201915b50505050508152602001600a8201548152602001600b8201548152505081526020019060010190612a37565b5050506000858152601d60209081526040808320815160a08101835281548152600182015493810193909352600281015491830191909152600381015460608301526004015460808201529293509050805b8351811015612c4c5786848281518110612be857612be8615fa1565b6020026020010151608001511415612c3a57838181518110612c0c57612c0c615fa1565b602002602001015160000151612710612c259190615e6b565b9150826020015182612c379190615e30565b91505b80612c4481615f39565b915050612bcc565b509695505050505050565b6000612c616136b6565b9050600d54811115612c8c576000600d546001612c7e9190615e18565b9050612c8a81836136d5565b505b33600090815260176020908152604080832080548251818502810185019093528083529192909190849084015b82821015612dfc5760008481526020908190206040805161018081018252600c860290920180548352600181015493830193909352600283015490820152600382015460ff9081161515606083015260048301546080830152600583015460a0830152600683015460c0830152600783015460e0830152600883015416151561010082015260098201805491929161012084019190612d5790615eeb565b80601f0160208091040260200160405190810160405280929190818152602001828054612d8390615eeb565b8015612dd05780601f10612da557610100808354040283529160200191612dd0565b820191906000526020600020905b815481529060010190602001808311612db357829003601f168201915b50505050508152602001600a8201548152602001600b8201548152505081526020019060010190612cb9565b50505050905060005b8151811015610ecb5784828281518110612e2157612e21615fa1565b6020026020010151608001511415613005576001600160a01b0384166000908152601760205260408082203383529120805483908110612e6357612e63615fa1565b6000918252602080832084546001818101875595855291909320600c928302909301805491909202909201918255828101549282019290925560028083015490820155600380830154908201805460ff92831615157fffffffffffffffffffffffffffffffffffffffffffffffffffffffffffffff009182161790915560048085015490840155600580850154908401556006808501549084015560078085015490840155600880850154908401805491909316151591161790556009808301805491830191612f3290615eeb565b612f3d929190615555565b50600a8281015490820155600b91820154910155336000908152601760205260409020805482908110612f7257612f72615fa1565b600091825260208220600c9091020181815560018101829055600281018290556003810180547fffffffffffffffffffffffffffffffffffffffffffffffffffffffffffffff0090811690915560048201839055600582018390556006820183905560078201839055600882018054909116905590612ff460098301826155d0565b506000600a8201819055600b909101555b8061300f81615f39565b915050612e05565b60006130223361364b565b509050806130725760405162461bcd60e51b815260206004820152600660248201527f4e6f7420534800000000000000000000000000000000000000000000000000006044820152606401610bf0565b33600090815260176020908152604080832080548251818502810185019093528083529192909190849084015b828210156131e25760008481526020908190206040805161018081018252600c860290920180548352600181015493830193909352600283015490820152600382015460ff9081161515606083015260048301546080830152600583015460a0830152600683015460c0830152600783015460e083015260088301541615156101008201526009820180549192916101208401919061313d90615eeb565b80601f016020809104026020016040519081016040528092919081815260200182805461316990615eeb565b80156131b65780601f1061318b576101008083540402835291602001916131b6565b820191906000526020600020905b81548152906001019060200180831161319957829003601f168201915b50505050508152602001600a8201548152602001600b820154815250508152602001906001019061309f565b505050509050613250604051806101800160405280600081526020016000815260200160008152602001600015158152602001600081526020016000815260200160008152602001600081526020016000151581526020016060815260200160008152602001600081525090565b600061325a6136b6565b90506000613269826001615e18565b9050600080600d54841115613297576000600d5460016132899190615e18565b905061329581866136d5565b505b60005b86518110156132f757888782815181106132b6576132b6615fa1565b60200260200101516080015114156132e5578681815181106132da576132da615fa1565b602002602001015195505b806132ef81615f39565b91505061329a565b50838560c00151111561330c57839150613314565b8460c0015191505b60006133298660a0015184886000015161422b565b90508560e001514210156135315761010086015115156001141561338f5760405162461bcd60e51b815260206004820152601f60248201527f46726565205374616b652063616e277420626520636c61696d206561726c79006044820152606401610bf0565b600060b4876020015110156133ab576133a88783614437565b90505b60b48760200151106133c4576133c187836144eb565b90505b60006133d1600283615e30565b90506000838961014001516133e69190615e18565b905060008184101561343d576000888152601b602052604090205461340c908490615e18565b6000898152601b6020526040902055600854613429908490615e18565b6008556134368483615ea8565b9050613489565b600061344a600284615e30565b60008a8152601b6020526040902054909150613467908290615e18565b60008a8152601b6020526040902055600854613484908290615e18565b600855505b6000898152601d6020908152604091829020825160a081018452815481526001820154928101839052600282015493810193909352600381015460608401526004015460808301528b516134dc91615ea8565b602080830191825260008c8152601d90915260409081902083518155915160018301558201516002820155606082015160038201556080820151600490910155909550859061352b3383613855565b50505050505b8560e00151421061356f5760008187610140015161354f9190615e18565b9050600061355d88836145ba565b905080935061356c3382613855565b50505b613579338a614700565b600061358e8388600001518960200151614a0e565b9050600b548111156135a057600b8190555b6000868152601d6020908152604091829020825160a0810184528154815260018201549281019290925260028101549282019290925260038201546060820152600490910154608082018190526101408901516135fc91615ea8565b608082019081526000978852601d602090815260409889902083518155908301516001820155978201516002890155606090910151600388015551600490960195909555505050505050505050565b60008060005b600f548110156136aa57600f818154811061366e5761366e615fa1565b6000918252602090912001546001600160a01b038581169116141561369857600194909350915050565b6136a3600182615e18565b9050613651565b50600093849350915050565b600080600554426136c79190615ea8565b9050610f786105dc82615e30565b600d546136e157600091505b815b818111613818578080156136ff576136fc600182615ea8565b90505b6000818152601d60209081526040808320815160a08101835281548152600182015493810193909352600281015491830191909152600381015460608301526004015460808201529061375183611f84565b6000858152601e602090815260408220549085015192935091613775908390615ea8565b90506002861061379f57600061378a87614ab8565b905080600e5461379a9190615e18565b600e55505b6040805160a08101825293845260208085019283528582015185830190815260608088015190870190815260809788015197870197885260008a8152601d90935292909120945185559151600185015590516002840155516003830155509051600490910155508061381081615f39565b9150506136e3565b50600d5550565b6000808361383086620186a0615e6b565b61383a9190615e30565b90506138468382615e6b565b9050611fdf620186a082615e30565b600061385f6136b6565b6000818152601d6020908152604091829020825160a0810184528154815260018201549281019290925260028101549282019290925260038201546060820181905260049092015460808201529192506138ba908490615e18565b606082019081526000838152601d6020908152604091829020845181559084015160018201559083015160028201559051600382015560808201516004909101556139058484614c76565b50505050565b60006139156136b6565b604080516060810182526001600160a01b039586168152602080820193845281830195865296861660009081526013885291822080546001808201835591845297909220905160039097020180547fffffffffffffffffffffffff0000000000000000000000000000000000000000169690951695909517845551938301939093555160029091015550565b600082816001600160a01b03841615611fdf57856001600160a01b0316846001600160a01b0316146139fb5760006139da83600a615e6b565b90506139e7606482615e30565b90506139f38183615e18565b915050611fdf565b6000613a08836014615e6b565b9050613a15606482615e30565b9050613a218183615e18565b9150613a2e85888461390b565b5095945050505050565b6001600160a01b038316613ab35760405162461bcd60e51b8152602060048201526024808201527f45524332303a20617070726f76652066726f6d20746865207a65726f2061646460448201527f72657373000000000000000000000000000000000000000000000000000000006064820152608401610bf0565b6001600160a01b038216613b2f5760405162461bcd60e51b815260206004820152602260248201527f45524332303a20617070726f766520746f20746865207a65726f20616464726560448201527f73730000000000000000000000000000000000000000000000000000000000006064820152608401610bf0565b6001600160a01b0383811660008181526001602090815260408083209487168084529482529182902085905590518481527f8c5be1e5ebec7d5bd14f71427d1e84f3dd0314c0f7b2291e5b200ac8c7c3b92591015b60405180910390a3505050565b6001600160a01b038316613c0d5760405162461bcd60e51b815260206004820152602560248201527f45524332303a207472616e736665722066726f6d20746865207a65726f20616460448201527f64726573730000000000000000000000000000000000000000000000000000006064820152608401610bf0565b6001600160a01b038216613c895760405162461bcd60e51b815260206004820152602360248201527f45524332303a207472616e7366657220746f20746865207a65726f206164647260448201527f65737300000000000000000000000000000000000000000000000000000000006064820152608401610bf0565b6001600160a01b03831660009081526020819052604090205481811015613d185760405162461bcd60e51b815260206004820152602660248201527f45524332303a207472616e7366657220616d6f756e742065786365656473206260448201527f616c616e636500000000000000000000000000000000000000000000000000006064820152608401610bf0565b6001600160a01b03808516600090815260208190526040808220858503905591851681529081208054849290613d4f908490615e18565b92505081905550826001600160a01b0316846001600160a01b03167fddf252ad1be2c89b69c2b068fc378daa952ba7f163c4a11628f55a4df523b3ef84604051613d9b91815260200190565b60405180910390a3613905565b6001600160a01b038381166000908152600160209081526040808320938616835292905220547fffffffffffffffffffffffffffffffffffffffffffffffffffffffffffffffff81146139055781811015613e455760405162461bcd60e51b815260206004820152601d60248201527f45524332303a20696e73756666696369656e7420616c6c6f77616e63650000006044820152606401610bf0565b6139058484848403613a38565b6001600160a01b038216613ece5760405162461bcd60e51b815260206004820152602160248201527f45524332303a206275726e2066726f6d20746865207a65726f2061646472657360448201527f73000000000000000000000000000000000000000000000000000000000000006064820152608401610bf0565b6001600160a01b03821660009081526020819052604090205481811015613f5d5760405162461bcd60e51b815260206004820152602260248201527f45524332303a206275726e20616d6f756e7420657863656564732062616c616e60448201527f63650000000000000000000000000000000000000000000000000000000000006064820152608401610bf0565b6001600160a01b0383166000908152602081905260408120838303905560028054849290613f8c908490615ea8565b90915550506040518281526000906001600160a01b038516907fddf252ad1be2c89b69c2b068fc378daa952ba7f163c4a11628f55a4df523b3ef90602001613b84565b6000670214e8348c4f000066354a6ba7a1800082818511613ff1575083613ff4565b50805b60006140008287615e6b565b905061400c8482615e30565b9695505050505050565b6000610e3982111561402857610e3991505b6000614035600184615ea8565b905060006140438286615e6b565b9050611fdf61071c82615e30565b60008061405e8385615e18565b905061406a8582615e18565b9050600b548161407a9190615e30565b9050611fdf620186a082615e6b565b600061409484614d55565b905060006140a6826305f5e100615e6b565b90506140b461271082615e30565b90508060006140c288614e19565b90506140ce8183615e6b565b91506140dc61271083615e30565b915060006140ea8984614e45565b90506140f7606482615e30565b90506141038184615e18565b9250826008546141139190615e18565b60085560006001600160a01b03888116908d161480159061413c57506001600160a01b03881615155b156141875783600061414f826014615e6b565b905061415c606482615e30565b90508060085461416c9190615e18565b6008556141798a82613855565b6141848a8f8361390b565b50505b6001600160a01b038816156141c1576141a18c858a6139a1565b90506141ad8185615e18565b9350806008546141bd9190615e18565b6008555b60006141ce85600a615e6b565b90506141db606482615e30565b90506141e78d82613855565b6141f48d8d8d8d85614e7f565b600061420186605a615e6b565b905061420e606482615e30565b905061421b818f8b614f21565b5050505050505050505050505050565b600080845b848110156142ce576000818152601d60209081526040808320815160a08101835281548152600182015493810193909352600281015491830191909152600381015460608301526004015460808201529061428a83611f84565b905060006142988783615e6b565b90508260200151816142aa9190615e30565b90506142b68186615e18565b945050505080806142c690615f39565b915050614230565b5061015f85111580156142e2575061015f84115b1561442f5761015e6000908152601d60209081526040805160a0810182527fc35179bd35da7e6e96f76d02b79c65ca486e672e239a4aee397aba5d6cd291d45481527fc35179bd35da7e6e96f76d02b79c65ca486e672e239a4aee397aba5d6cd291d5549281018390527fc35179bd35da7e6e96f76d02b79c65ca486e672e239a4aee397aba5d6cd291d654918101919091527fc35179bd35da7e6e96f76d02b79c65ca486e672e239a4aee397aba5d6cd291d75460608201527fc35179bd35da7e6e96f76d02b79c65ca486e672e239a4aee397aba5d6cd291d854608082015291906143d090869061524e565b905060006143dc615277565b9050600e54816143ec9190615e18565b905060006143fa8383615e6b565b9050614407606482615e30565b61441390612710615e6b565b905061441e81615325565b6144289082615e18565b9450505050505b949350505050565b60008083604001514261444a9190615ea8565b90506144586105dc82615e30565b905060008161448657600061447586600001518760a0015161537a565b905061448281605a615e6b565b9150505b605a8210801561449557508115155b156144b4576144a584605a615e6b565b90506144b18282615e30565b90505b81605a14156144c05750825b605a82111561442f5760006144df8660a00151876000015160596153c7565b905061400c8186615ea8565b6000808360400151426144fe9190615ea8565b905061450c6105dc82615e30565b60208501519091506000614521600283615e30565b905060008361454e57600061453e88600001518960a0015161537a565b905061454a8382615e6b565b9150505b818410801561455c57508315155b1561457a5761456b8287615e6b565b90506145778482615e30565b90505b818414156145855750845b81841115611ad85760006145a28860a001518960000151856153c7565b90506145ae8188615ea8565b98975050505050505050565b6000808360e00151426145cd9190615ea8565b90506145db6105dc82615e30565b9050600e8111156146f75782608f60006145f58284615e6b565b90506146036103e882615e30565b9050614610606482615e30565b9050600061461e8286615e6b565b9050600061462d600283615e30565b905060008061463a6136b6565b9050614647816001615e18565b90508984101561469c576000818152601b602052604090205461466b908490615e18565b6000828152601b6020526040902055600854614688908490615e18565b600855614695848b615ea8565b91506146e8565b60006146a9600284615e30565b6000838152601b60205260409020549091506146c6908290615e18565b6000838152601b60205260409020556008546146e3908290615e18565b600855505b509650610f7895505050505050565b82915050610f78565b6001600160a01b038216600090815260176020908152604080832080548251818502810185019093528083529192909190849084015b828210156148795760008481526020908190206040805161018081018252600c860290920180548352600181015493830193909352600283015490820152600382015460ff9081161515606083015260048301546080830152600583015460a0830152600683015460c0830152600783015460e08301526008830154161515610100820152600982018054919291610120840191906147d490615eeb565b80601f016020809104026020016040519081016040528092919081815260200182805461480090615eeb565b801561484d5780601f106148225761010080835404028352916020019161484d565b820191906000526020600020905b81548152906001019060200180831161483057829003601f168201915b50505050508152602001600a8201548152602001600b8201548152505081526020019060010190614736565b50505050905060005b8151811015613905578282828151811061489e5761489e615fa1565b60200260200101516080015114156149fc5760018282815181106148c4576148c4615fa1565b602002602001015160600190151590811515815250508181815181106148ec576148ec615fa1565b602002602001015160176000866001600160a01b03166001600160a01b03168152602001908152602001600020828154811061492a5761492a615fa1565b60009182526020918290208351600c909202019081558282015160018201556040830151600282015560608301516003820180549115157fffffffffffffffffffffffffffffffffffffffffffffffffffffffffffffff009283161790556080840151600483015560a0840151600583015560c0840151600683015560e0840151600783015561010084015160088301805491151591909216179055610120830151805191926149e2926009850192909101906154d1565b50610140820151600a82015561016090910151600b909101555b80614a0681615f39565b915050614882565b600080614a1a85613fcf565b90506000614a288685614016565b9050600081614a378489615e18565b614a419190615e18565b9050614a50620186a082615e6b565b9050614a5c8682615e30565b9050614a6f600165010000000000615ea8565b811115614a8a57614a87600165010000000000615ea8565b90505b600b54614a98906004615e6b565b81111561400c57600b54614aad906004615e6b565b979650505050505050565b600080614ac6600284615ea8565b600081815260146020526040812054919250614ae183611a57565b600084815260156020908152604080832080548251818502810185019093528083529495509293909291830182828015614b4457602002820191906000526020600020905b81546001600160a01b03168152600190910190602001808311614b26575b50505050509050600081511115614c605760005b8151811015614c5a576000806000614c1a88868681518110614b7c57614b7c615fa1565b60200260200101516040805160a0810182526000808252602082018190529181018290526060810182905260808101919091525060009182526012602090815260408084206001600160a01b039384168552825292839020835160a08101855281548152600182015492810192909252600281015460ff81161515948301949094526101009093048216606082015260039092015416608082015290565b6040810151909150614c445780519250614c3583888861381f565b9150614c41828a615e18565b98505b5050508080614c5290615f39565b915050614b58565b50614c6d565b614c6a8286615e18565b94505b50505050919050565b6001600160a01b038216614ccc5760405162461bcd60e51b815260206004820152601f60248201527f45524332303a206d696e7420746f20746865207a65726f2061646472657373006044820152606401610bf0565b8060026000828254614cde9190615e18565b90915550506001600160a01b03821660009081526020819052604081208054839290614d0b908490615e18565b90915550506040518181526001600160a01b038316906000907fddf252ad1be2c89b69c2b068fc378daa952ba7f163c4a11628f55a4df523b3ef9060200160405180910390a35050565b600064174876e800821015614d68575090565b64174876e8008210158015614d81575064e8d4a5100082105b15614df8576000614d9764174876e80084615ea8565b9050614da4816019615e6b565b614daf906064615e6b565b9050614dc064d18c2e280082615e30565b9050614dce81611388615e18565b90506000614ddc8285615e6b565b9050614dea61271082615e30565b90506000611fdf8286615ea8565b6000614e05836019615e6b565b9050614e12606482615e30565b9392505050565b600061015e81614e298483615ea8565b9050614e3781612710615e6b565b905061442f61015e82615e30565b6000808281614e55826014615e6b565b90506000614e6561015e83615e30565b90506000614e738883615e6b565b90506145ae8184615ea8565b6040805160a08101825285815260208082018590528183018690526060820184905260095460808301526001600160a01b0388166000908152601982529283208054600181018255908452928190208251805193948594600590910290920192614eee928492909101906154d1565b50602082015181600101556040820151816002015560608201518160030155608082015181600401555050505050505050565b6006805460009182614f3283615f39565b9190505590506000614f426136b6565b90506000614f508483615e18565b90506000614f60826105dc615e6b565b9050614f6c8142615e18565b90506000614f7c88600080614051565b6000848152601e6020526040902054909150614f99908290615e18565b601e600085815260200190815260200160002081905550600060405180610180016040528083815260200161016d81526020014281526020016000151581526020018781526020018681526020018581526020018481526020016001151581526020016040518060200160405280600081525081526020018a8152602001600b54815250905060176000896001600160a01b03166001600160a01b031681526020019081526020016000208190806001815401808255809150506001900390600052602060002090600c020160009091909190915060008201518160000155602082015181600101556040820151816002015560608201518160030160006101000a81548160ff0219169083151502179055506080820151816004015560a0820151816005015560c0820151816006015560e082015181600701556101008201518160080160006101000a81548160ff0219169083151502179055506101208201518160090190805190602001906151129291906154d1565b50610140820151600a82015561016090910151600b909101556000858152601d6020908152604091829020825160a0810184528154815260018201549281018390526002820154938101939093526003810154606084015260040154608083015261517e908490615e18565b60208201526080810151615193908b90615e18565b608082019081526000878152601d602090815260408083208551815591850151600183015584015160028201556060840151600382015591516004909201919091556151de8a61364b565b5090508061524157600f80546001810182556000919091527f8d1108e10bcb7c27dddfc02ed9d693a074039d026cf4ea4240b40f7d581ac8020180547fffffffffffffffffffffffff000000000000000000000000000000000000000016331790555b5050505050505050505050565b6000818161525e85612710615e6b565b905061526a8282615e30565b9050611fdf816064615e6b565b600080805b61015e811161531f576000818152601d60209081526040808320815160a081018352815481526001820154938101939093526002810154918301829052600381015460608401526004015460808301529091906152de906305f5e10090615e30565b905060006152ee82610b29615e6b565b90506152fb606482615e30565b90506153078186615e18565b9450505050808061531790615f39565b91505061527c565b50919050565b6000806301ab362e9050600080600c54856153409190615e6b565b905061534c8382615e30565b90506000600a548661535e9190615e6b565b90506009548161536e9190615e30565b905061400c8183615e18565b6000806153856136b6565b90506000615393858561546a565b905060006153a083611f84565b905060006153ae8383615e6b565b90506153bb606482615e30565b614aad90612710615e6b565b600080845b6153d68487615e18565b8110156154615760006153e882611f84565b90506153f48682615e6b565b6000838152601d6020908152604091829020825160a081018452815481526001820154928101839052600282015493810193909352600381015460608401526004015460808301529194509061544a9085615e30565b93505050808061545990615f39565b9150506153cc565b50949350505050565b6000818152601d60209081526040808320815160a0810183528154815260018201549381019390935260028101549183019190915260038101546060830152600401546080820152816154bf85612710615e6b565b905081602001518161526a9190615e30565b8280546154dd90615eeb565b90600052602060002090601f0160209004810192826154ff5760008555615545565b82601f1061551857805160ff1916838001178555615545565b82800160010185558215615545579182015b8281111561554557825182559160200191906001019061552a565b50615551929150615606565b5090565b82805461556190615eeb565b90600052602060002090601f0160209004810192826155835760008555615545565b82601f106155945780548555615545565b8280016001018555821561554557600052602060002091601f016020900482015b828111156155455782548255916001019190600101906155b5565b5080546155dc90615eeb565b6000825580601f106155ec575050565b601f01602090049060005260206000209081019061165991905b5b808211156155515760008155600101615607565b80356001600160a01b03811681146129ff57600080fd5b60008083601f84011261564457600080fd5b50813567ffffffffffffffff81111561565c57600080fd5b6020830191508360208260051b850101111561567757600080fd5b9250929050565b600082601f83011261568f57600080fd5b813567ffffffffffffffff808211156156aa576156aa615fd0565b604051601f83017fffffffffffffffffffffffffffffffffffffffffffffffffffffffffffffffe0908116603f011681019082821181831017156156f0576156f0615fd0565b8160405283815286602085880101111561570957600080fd5b836020870160208301376000602085830101528094505050505092915050565b803560ff811681146129ff57600080fd5b60006020828403121561574c57600080fd5b614e128261561b565b6000806040838503121561576857600080fd5b6157718361561b565b915061577f6020840161561b565b90509250929050565b60008060006060848603121561579d57600080fd5b6157a68461561b565b92506157b46020850161561b565b9150604084013590509250925092565b600080604083850312156157d757600080fd5b6157e08361561b565b946020939093013593505050565b60008060006060848603121561580357600080fd5b61580c8461561b565b95602085013595506040909401359392505050565b60006020828403121561583357600080fd5b81518015158114614e1257600080fd5b60006020828403121561585557600080fd5b813567ffffffffffffffff81111561586c57600080fd5b61442f8482850161567e565b60006020828403121561588a57600080fd5b5035919050565b600080604083850312156158a457600080fd5b8235915061577f6020840161561b565b6000806000806000806000806000806000806101608d8f0312156158d757600080fd5b8c359b5067ffffffffffffffff60208e013511156158f457600080fd5b6159048e60208f01358f0161567e565b9a5060408d0135995061591960608e0161561b565b985067ffffffffffffffff60808e0135111561593457600080fd5b6159448e60808f01358f01615632565b909850965060a08d0135955060c08d0135945060e08d0135935061596b6101008e01615729565b92506101208d013591506101408d013590509295989b509295989b509295989b565b600080604083850312156159a057600080fd5b50508035926020909101359150565b6000806000606084860312156159c457600080fd5b8335925060208401359150604084013567ffffffffffffffff8111156159e957600080fd5b6159f58682870161567e565b9150509250925092565b60008151808452615a17816020860160208601615ebf565b601f017fffffffffffffffffffffffffffffffffffffffffffffffffffffffffffffffe0169290920160200192915050565b60008251615a5b818460208701615ebf565b9190910192915050565b60006020808301818452808551808352604092508286019150828160051b87010184880160005b83811015615b0a577fffffffffffffffffffffffffffffffffffffffffffffffffffffffffffffffc0898403018552815160a08151818652615ad0828701826159ff565b838b0151878c0152898401518a88015260608085015190880152608093840151939096019290925250509386019390860190600101615a8c565b509098975050505050505050565b602080825282518282018190526000919060409081850190868401855b82811015615b6d57815180516001600160a01b0316855286810151878601528501518585015260609093019290850190600101615b35565b5091979650505050505050565b60006020808301818452808551808352604092508286019150828160051b87010184880160005b83811015615b0a577fffffffffffffffffffffffffffffffffffffffffffffffffffffffffffffffc089840301855281516101808151855288820151898601528782015188860152606080830151615bfc8288018215159052565b50506080828101519086015260a0808301519086015260c0808301519086015260e080830151908601526101008083015115159086015261012080830151818701839052615c4c838801826159ff565b61014085810151908901526101609485015194909701939093525050509386019390860190600101615ba1565b602080825282518282018190526000919060409081850190868401855b82811015615b6d57815180516001600160a01b0390811686528782015116878601528501518585015260609093019290850190600101615c96565b602081526000614e1260208301846159ff565b60a081526000615cf760a08301886159ff565b90508560208301528460408301528360608301528260808301529695505050505050565b60006101008b83528060208401528981840152506101207f07ffffffffffffffffffffffffffffffffffffffffffffffffffffffffffffff8a1115615d5f57600080fd5b8960051b808c8386013760009084019091019081526040830198909852506060810195909552608085019390935260ff9190911660a084015260c083015260e0909101529392505050565b60006101808e83528d60208401528c60408401528b151560608401528a60808401528960a08401528860c08401528760e084015286151561010084015280610120840152615dfa818401876159ff565b610140840195909552505061016001529a9950505050505050505050565b60008219821115615e2b57615e2b615f72565b500190565b600082615e66577f4e487b7100000000000000000000000000000000000000000000000000000000600052601260045260246000fd5b500490565b6000817fffffffffffffffffffffffffffffffffffffffffffffffffffffffffffffffff0483118215151615615ea357615ea3615f72565b500290565b600082821015615eba57615eba615f72565b500390565b60005b83811015615eda578181015183820152602001615ec2565b838111156139055750506000910152565b600181811c90821680615eff57607f821691505b6020821081141561531f577f4e487b7100000000000000000000000000000000000000000000000000000000600052602260045260246000fd5b60007fffffffffffffffffffffffffffffffffffffffffffffffffffffffffffffffff821415615f6b57615f6b615f72565b5060010190565b7f4e487b7100000000000000000000000000000000000000000000000000000000600052601160045260246000fd5b7f4e487b7100000000000000000000000000000000000000000000000000000000600052603260045260246000fd5b7f4e487b7100000000000000000000000000000000000000000000000000000000600052604160045260246000fdfea2646970667358221220777bbc1a4bef67fc2b14cb8dbf493733f6c8695c4c167d6725d3421ee4e1c01b64736f6c63430008070033",
  "linkReferences": {},
  "deployedLinkReferences": {}
}