{
  "_format": "hh-sol-artifact-1",
  "contractName": "SignatureVerification",
  "sourceName": "contracts/hashVerfication.sol",
  "abi": [
    {
      "inputs": [
        {
          "internalType": "uint256",
          "name": "rawSatoshis",
          "type": "uint256"
        },
        {
          "internalType": "bytes32[]",
          "name": "proof",
          "type": "bytes32[]"
        },
        {
          "internalType": "bytes32",
          "name": "messageHash",
          "type": "bytes32"
        },
        {
          "internalType": "bytes32",
          "name": "pubKeyX",
          "type": "bytes32"
        },
        {
          "internalType": "bytes32",
          "name": "pubKeyY",
          "type": "bytes32"
        },
        {
          "internalType": "uint8",
          "name": "v",
          "type": "uint8"
        },
        {
          "internalType": "bytes32",
          "name": "r",
          "type": "bytes32"
        },
        {
          "internalType": "bytes32",
          "name": "s",
          "type": "bytes32"
        }
      ],
      "name": "btcAddressClaim",
      "outputs": [
        {
          "internalType": "bool",
          "name": "",
          "type": "bool"
        }
      ],
      "stateMutability": "nonpayable",
      "type": "function"
    },
    {
      "inputs": [
        {
          "internalType": "bytes20",
          "name": "",
          "type": "bytes20"
        }
      ],
      "name": "btcAddressClaims",
      "outputs": [
        {
          "internalType": "bool",
          "name": "",
          "type": "bool"
        }
      ],
      "stateMutability": "view",
      "type": "function"
    },
    {
      "inputs": [
        {
          "internalType": "bytes32",
          "name": "pubKeyX",
          "type": "bytes32"
        },
        {
          "internalType": "bytes32",
          "name": "pubKeyY",
          "type": "bytes32"
        },
        {
          "internalType": "bytes32",
          "name": "messageHash",
          "type": "bytes32"
        },
        {
          "internalType": "uint8",
          "name": "v",
          "type": "uint8"
        },
        {
          "internalType": "bytes32",
          "name": "r",
          "type": "bytes32"
        },
        {
          "internalType": "bytes32",
          "name": "s",
          "type": "bytes32"
        }
      ],
      "name": "claimMessageMatchesSignature",
      "outputs": [
        {
          "internalType": "bool",
          "name": "",
          "type": "bool"
        }
      ],
      "stateMutability": "pure",
      "type": "function"
    },
    {
      "inputs": [
        {
          "internalType": "bytes32",
          "name": "pubKeyX",
          "type": "bytes32"
        },
        {
          "internalType": "bytes32",
          "name": "pubKeyY",
          "type": "bytes32"
        }
      ],
      "name": "pubKeyToBtcAddress",
      "outputs": [
        {
          "internalType": "bytes20",
          "name": "",
          "type": "bytes20"
        }
      ],
      "stateMutability": "pure",
      "type": "function"
    },
    {
      "inputs": [
        {
          "internalType": "bytes32",
          "name": "pubKeyX",
          "type": "bytes32"
        },
        {
          "internalType": "bytes32",
          "name": "pubKeyY",
          "type": "bytes32"
        }
      ],
      "name": "pubKeyToEthAddress",
      "outputs": [
        {
          "internalType": "address",
          "name": "",
          "type": "address"
        }
      ],
      "stateMutability": "pure",
      "type": "function"
    },
    {
      "inputs": [
        {
          "internalType": "bytes32",
          "name": "messageHash",
          "type": "bytes32"
        },
        {
          "internalType": "uint8",
          "name": "v",
          "type": "uint8"
        },
        {
          "internalType": "bytes32",
          "name": "r",
          "type": "bytes32"
        },
        {
          "internalType": "bytes32",
          "name": "s",
          "type": "bytes32"
        }
      ],
      "name": "sigAddress",
      "outputs": [
        {
          "internalType": "address",
          "name": "",
          "type": "address"
        }
      ],
      "stateMutability": "pure",
      "type": "function"
    }
  ],
  "bytecode": "0x608060405234801561001057600080fd5b50610c23806100206000396000f3fe608060405234801561001057600080fd5b50600436106100715760003560e01c80637c426620116100505780637c42662014610131578063f60ee48614610164578063f6980f4d1461017757600080fd5b806204b6a71461007657806330c1a785146100bf57806374e8f2b01461011e575b600080fd5b6100896100843660046109b5565b61018a565b6040517fffffffffffffffffffffffffffffffffffffffff00000000000000000000000090911681526020015b60405180910390f35b6100f96100cd3660046109b5565b604080516020808201949094528082019290925280518083038201815260609092019052805191012090565b60405173ffffffffffffffffffffffffffffffffffffffff90911681526020016100b6565b6100f961012c366004610a28565b6101f3565b61015461013f36600461095a565b60006020819052908152604090205460ff1681565b60405190151581526020016100b6565b6101546101723660046109d7565b6102fd565b610154610185366004610a63565b610444565b6040517f040000000000000000000000000000000000000000000000000000000000000060208201526021810183905260418101829052600090600490606090606101604051602081830303815290604052905060006101e982610730565b9695505050505050565b6000601b8460ff161015801561020d5750601e8460ff1611155b610278576040517f08c379a000000000000000000000000000000000000000000000000000000000815260206004820152601260248201527f4d796e746973743a207620696e76616c6964000000000000000000000000000060448201526064015b60405180910390fd5b60408051600081526020810180835287905260ff861691810191909152606081018490526080810183905260019060a0016020604051602081039080840390855afa1580156102cb573d6000803e3d6000fd5b50506040517fffffffffffffffffffffffffffffffffffffffffffffffffffffffffffffffe001519695505050505050565b6000601b8460ff16101580156103175750601e8460ff1611155b61037d576040517f08c379a000000000000000000000000000000000000000000000000000000000815260206004820152601260248201527f4d796e746973743a207620696e76616c69640000000000000000000000000000604482015260640161026f565b6040805160208082018a90528183018990528251808303840181526060909201909252805191012060009060408051600081526020810180835289905260ff881691810191909152606081018690526080810185905290915073ffffffffffffffffffffffffffffffffffffffff82169060019060a0016020604051602081039080840390855afa158015610416573d6000803e3d6000fd5b5050506020604051035173ffffffffffffffffffffffffffffffffffffffff16149150509695505050505050565b600065173cdf6f6e318a11156104b6576040517f08c379a000000000000000000000000000000000000000000000000000000000815260206004820152601960248201527f4d796e746973743a2043484b3a207261775361746f7368697300000000000000604482015260640161026f565b6104c48686898787876102fd565b61052a576040517f08c379a000000000000000000000000000000000000000000000000000000000815260206004820152601b60248201527f4d796e746973743a205369676e6174757265206d69736d617463680000000000604482015260640161026f565b6000610536878761018a565b7fffffffffffffffffffffffffffffffffffffffff000000000000000000000000811660009081526020819052604090205490915060ff16156105fb576040517f08c379a000000000000000000000000000000000000000000000000000000000815260206004820152602c60248201527f4d796e746973743a2042544320616464726573732062616c616e636520616c7260448201527f6561647920636c61696d65640000000000000000000000000000000000000000606482015260840161026f565b610639818c8c8c808060200260200160405190810160405280939291908181526020018383602002808284376000920191909152506107fb92505050565b6106c5576040517f08c379a000000000000000000000000000000000000000000000000000000000815260206004820152602760248201527f4d796e746973743a204254432061646472657373206f722062616c616e63652060448201527f756e6b6e6f776e00000000000000000000000000000000000000000000000000606482015260840161026f565b7fffffffffffffffffffffffffffffffffffffffff00000000000000000000000016600090815260208190526040902080547fffffffffffffffffffffffffffffffffffffffffffffffffffffffffffffff0016600190811790915590509998505050505050505050565b600060036002836040516107449190610b23565b602060405180830381855afa158015610761573d6000803e3d6000fd5b5050506040513d601f19601f82011682018060405250810190610784919061099c565b60405160200161079691815260200190565b604080517fffffffffffffffffffffffffffffffffffffffffffffffffffffffffffffffe0818403018152908290526107ce91610b23565b602060405180830381855afa1580156107eb573d6000803e3d6000fd5b50506040515160601b9392505050565b6040517fffffffffffffffffffffffffffffffffffffffff000000000000000000000000841660208201526034810183905260009081906054016040516020818303038152906040528051906020012090506108578184610860565b95945050505050565b600061088d827f7f595b64c3ad65759aaab71b3f4d0f8951ac89d869e170cd659926d9edc1cdbe85610894565b9392505050565b600081815b85518110156109395760008682815181106108b6576108b6610bbe565b60200260200101519050808310156108f9576040805160208101859052908101829052606001604051602081830303815290604052805190602001209250610926565b60408051602081018390529081018490526060016040516020818303038152906040528051906020012092505b508061093181610b5e565b915050610899565b509092149392505050565b803560ff8116811461095557600080fd5b919050565b60006020828403121561096c57600080fd5b81357fffffffffffffffffffffffffffffffffffffffff0000000000000000000000008116811461088d57600080fd5b6000602082840312156109ae57600080fd5b5051919050565b600080604083850312156109c857600080fd5b50508035926020909101359150565b60008060008060008060c087890312156109f057600080fd5b863595506020870135945060408701359350610a0e60608801610944565b92506080870135915060a087013590509295509295509295565b60008060008060808587031215610a3e57600080fd5b84359350610a4e60208601610944565b93969395505050506040820135916060013590565b60008060008060008060008060006101008a8c031215610a8257600080fd5b8935985060208a013567ffffffffffffffff80821115610aa157600080fd5b818c0191508c601f830112610ab557600080fd5b813581811115610ac457600080fd5b8d60208260051b8501011115610ad957600080fd5b602083019a5080995050505060408a0135955060608a0135945060808a01359350610b0660a08b01610944565b925060c08a0135915060e08a013590509295985092959850929598565b6000825160005b81811015610b445760208186018101518583015201610b2a565b81811115610b53576000828501525b509190910192915050565b60007fffffffffffffffffffffffffffffffffffffffffffffffffffffffffffffffff821415610bb7577f4e487b7100000000000000000000000000000000000000000000000000000000600052601160045260246000fd5b5060010190565b7f4e487b7100000000000000000000000000000000000000000000000000000000600052603260045260246000fdfea2646970667358221220e8f467c9045ba1d2a41afa5bc467f585643536b0d2b608e9689f2009c1b1509e64736f6c63430008070033",
  "linkReferences": {},
  "deployedLinkReferences": {}
}